:100000000C94F6000C9413010C9413010C9413013E
:100010000C9413010C9413010C9413010C94130110
:100020000C9413010C9413010C9413010C94130100
:100030000C9413010C9413010C9413010C941301F0
:100040000C9413010C9413010C9413010C941301E0
:100050000C9413010C9413010C9413010C941301D0
:100060000C9413010C94130107634236B79BD8A775
:100070001A39685618AEBAAB558C1D3CB7CC5763CD
:10008000BD6DEDFD753EF6177231BF000000803F7B
:1000900008000000BE922449123EABAAAA2ABECD97
:1000A000CCCC4C3E00000080BEABAAAAAA3E000009
:1000B0000000BF000000803F000000000008417801
:1000C000D3BB4387D1133D190E3CC3BD4282AD2B38
:1000D0003E68EC8276BED98FE1A93E4C80EFFFBE30
:1000E00001C4FF7F3F00000000006E616E00696E7A
:1000F000660000407A10F35A00A0724E18090010F2
:10010000A5D4E80000E87648170000E40B5402008C
:1001100000CA9A3B000000E1F505000080969800B7
:10012000000040420F000000A086010000001027E0
:1001300000000000E8030000000064000000000070
:100140000A00000000000100000000002C76D888A2
:10015000DC674F0823DFC1DFAE59E1B1B796E5E3B5
:10016000E453C63AE651997696E8E6C28426EB89CE
:100170008C9B62ED407C6FFCEFBC9C9F40F2BAA56B
:100180006FA5F490055A2AF75C936B6CF9676DC103
:100190001BFCE0E40D47FEF520E6B500D0ED902E07
:1001A0000300943577050080841E080000204E0A65
:1001B000000000C80C333333330F986E12831141A3
:1001C000EF8D2114893BE65516CFFEE6DB18D1846E
:1001D0004B381BF77C1D901DA4BBE4242032847295
:1001E0005E228100C9F124ECA1E53D2711241FBE48
:1001F000CFEFD8E0DEBFCDBF12E0A0E0B1E0E0E09D
:10020000FEE102C005900D92A03DB107D9F723E0B1
:10021000A0EDB2E001C01D92A730B207E1F70E9445
:1002200059050C94FE0E0C940000CF93C82F8A3011
:1002300019F48DE00E9415018091C00085FFFCCF6C
:10024000C093C600CF9108951092B90080E28093C8
:10025000B800089584EA8093BC008091D00288237E
:1002600021F088E291E00E94730E8091BC0087FF2C
:10027000FCCF8091B900887F8830D9F78091D00277
:10028000882321F08AE591E00C94730E089584E9A7
:100290008093BC008091D002882321F08BE791E00D
:1002A0000C94730E08958093BB0094E89093BC0067
:1002B0009091D002992361F01F928F938FE991E082
:1002C0009F938F930E945F0E0F900F900F900F904F
:1002D0008091BC0087FFFCCF8091B900887F883176
:1002E00029F08091B900887F803441F48091D00258
:1002F000882321F088ED91E00C94730E089580938B
:10030000BB009091D002992361F01F928F938AEFE6
:1003100091E09F938F930E945F0E0F900F900F902C
:100320000F9084E88093BC008091BC0087FFFCCFD5
:100330008091D002882321F088E192E00E94730E20
:100340008091B900887F883241F48091D00288235F
:1003500021F08AE591E00C94730E0895CF93DF931A
:10036000EC018091D002882321F081E492E00E9488
:10037000730ECD2B11F484E801C084EC8093BC0093
:100380008091BC0087FFFCCF8091D002882371F060
:100390008091BB001F928F9388E592E09F938F938B
:1003A0000E945F0E0F900F900F900F908091BB00F6
:1003B000DF91CF91089584EA8093BC008091BC00C6
:1003C00087FFFCCF8091B900887F8031D9F70895ED
:1003D0008093D002089508956091DF027091E00249
:1003E0008091E1029091E2020E94410A20E836EEFB
:1003F00045EC57E40E94A60921E03EED42E45EE3AD
:100400000E94300B9B01AC0160E070E080E89FE34C
:100410000E94410920E03AE24DE257E40E94CD0AF1
:100420006093E3027093E4028093E5029093E60206
:100430000895CF93DF930E942A018EEE0E9453010C
:1004400084EF0E947F018EE20E947F010E9447019B
:1004500087E293E20197F1F700C000000E942A01B1
:100460008EEE0E94530186EF0E947F0187EF0E946B
:100470007F010E94DB018FEE0E94530181E090E03A
:100480000E94AE01682F70E0D62FCC2780E090E06C
:100490000E94AE01C82B0E944701BE01882777FD4C
:1004A0008095982FDF91CF9108958F929F92AF9270
:1004B000BF92CF92DF92EF92FF920E9419029B01AE
:1004C000AC018091F1029091F202281B390B410995
:1004D0005109A091EF02B091F0020E94E60C0E9437
:1004E000410A20E030E040E058E30E94CD0A0E943B
:1004F0000E0A6B017C016091FD027091FE0288275B
:1005000077FD8095982F0E94410A20E030E040E07E
:1005100055E40E94CD0A4B015C018091FF0290914D
:100520000003BC01882777FD8095982F6C0D7D1DF9
:100530008E1D9F1D0E94410A9B01AC01C501B401A3
:100540000E94A6090E940E0A6C0D7D1D8E1D9F1D26
:100550006093F7027093F8028093F9029093FA0285
:10056000685F7F4F8F4F9F4F0E94410A20E030E02D
:1005700040E85DE30E94CD0A0E940E0A6093DB0210
:100580007093DC028093DD029093DE02FF90EF9087
:10059000DF90CF90BF90AF909F908F9008951F9362
:1005A000CF93DF930E942A018EEE0E94530184EFC5
:1005B0000E947F018091D1029091D20282309105F8
:1005C000C9F08330910501F1019751F084E30E9455
:1005D0007F010E94470187E293E20197F1F71DC076
:1005E00084E70E947F010E94470187E99AE301970F
:1005F000F1F713C084EB0E947F010E94470187E757
:1006000099E60197F1F709C084EF0E947F010E94EB
:10061000470187E397EC0197F1F700C000000E94C3
:100620002A018EEE0E94530186EF0E947F0187EF20
:100630000E947F010E94DB018FEE0E94530181E046
:1006400090E00E94AE01C82F80E090E00E94AE01D1
:10065000182F0E9447010E942A018EEE0E9453012A
:1006600088EF0E947F010E94DB018FEE0E94530100
:1006700080E090E00E94AE01D82F0E944701812FB8
:1006800090E0A0E0B0E06627782F892F9A2F8C2B7E
:100690006D2B28E030E04091D1025091D202241B12
:1006A000350B04C096958795779567952A95D2F76F
:1006B000DF91CF911F9108953F924F925F926F9279
:1006C0007F928F929F92AF92BF92CF92DF92EF92E2
:1006D000FF920F931F93CF93DF93CDB7DEB7289789
:1006E0000FB6F894DEBF0FBECDBF0E94CF026D8360
:1006F0007E838F8398878090F7029090F802A09075
:10070000F902B090FA0280EA881A8FE0980AA108EC
:10071000B108A5019401C501B4010E94950C2B01FB
:100720003C01FCE07594679457944794FA95D1F78F
:100730000091E7021091E8023090D102A091EB0203
:10074000B091EC020E94F10C6B017C01ADE0F594DC
:10075000E794D794C794AA95D1F7A091F302B091EA
:10076000F402A30192010E94F10CBB2797FDB09502
:10077000AB2FC80ED91EEA1EFB1E92E0C90ED11C7B
:10078000E11CF11C82E0F594E794D794C7948A9514
:10079000D1F7A0E8DA0EE11CF11CA091ED02B091B6
:1007A000EE02A70196010E94E60CDC01CB012FE0CE
:1007B000B695A795979587952A95D1F789839A83BA
:1007C000AB83BC836801EE24D7FCE094FE2C32E0BE
:1007D000CC0CDD1CEE1CFF1C3A95D1F7A091F50264
:1007E000B091F602A30192010E94F10C2B013C0191
:1007F0004BE075946794579447944A95D1F7A0912C
:10080000E902B091EA02A50194010E94F10C5BE0BB
:1008100095958795779567955A95D1F7460E571E0A
:10082000681E791EC40CD51CE61CF71C032C04C0E2
:10083000CC0CDD1CEE1CFF1C0A94D2F792E0C90E12
:10084000D11CE11CF11CC701B60124E030E040E0FE
:1008500050E00E94C70C8D819E81AF81B885821BBC
:10086000930BA40BB50B8D839E83AF83B88760E594
:1008700073EC80E090E004C0969587957795679536
:100880003A94D2F72D813E814F8158850E94950C74
:1008900097FD0DC0660F771F881F991F29813A8128
:1008A0004B815C810E94A50C49015A010CC0298131
:1008B0003A814B815C810E94A50C49015A01880C48
:1008C000991CAA1CBB1C9927B7FC9A958B2D7A2DD5
:1008D000692D9B01AC010E94950C9B01AC01AEED12
:1008E000BBE00E94E60C6C01FF24D7FCF094EF2CD7
:1008F000A3E4B3EEA50194010E94F40CBB2797FD7D
:10090000B095AB2FC80ED91EEA1EFB1E9FECC90E78
:100910009EE0D91EE11CF11C64E0F594E794D794A5
:10092000C7946A95D1F7C80CD91CEA1CFB1CC0926D
:10093000DF02D092E002E092E102F092E202289619
:100940000FB6F894DEBF0FBECDBFDF91CF911F91E0
:100950000F91FF90EF90DF90CF90BF90AF909F905E
:100960008F907F906F905F904F903F900895DF92AF
:10097000EF92FF920F931F93CF93DF93CDB7DEB724
:1009800066970FB6F894DEBF0FBECDBF02E111E04F
:10099000CE0101967C010E942A018EEE0E94530135
:1009A000F801D08081810E5F1F4F0E947F018D2D45
:1009B0000E947F010E94DB018FEE0E94530181E0C3
:1009C00090E00E94AE01D82E80E090E00E94AE013F
:1009D0002D2D30E0322F2227282BF7012193319340
:1009E0007F010E944701F1E008321F07A1F68981CB
:1009F0009A819093E8028093E7028B819C81909387
:100A0000EA028093E9028D819E819093EC028093AB
:100A1000EB028F8198859093EE028093ED02898599
:100A20009A859093F0028093EF028B859C8590933A
:100A3000F2028093F1028D859E859093F40280935B
:100A4000F3028F8598899093F6028093F502898945
:100A50009A899093FC028093FB028B899C899093E6
:100A6000FE028093FD028D899E89909300038093FE
:100A7000FF0266960FB6F894DEBF0FBECDBFDF91C2
:100A8000CF911F910F91FF90EF90DF900895CF933A
:100A9000DF93EC010E94B704D093D202C093D1023D
:100AA000DF91CF9108950E9455020E945C030C943F
:100AB000EC0188E08093C10083E38093C40086E06A
:100AC0008093C20080E091E090930403809303033D
:100AD000CBE8D2E00E94B7041092D2021092D10269
:100AE0000E9453051091E3020091E402F090E502A8
:100AF000E090E60221EA38EF41E550E4D801F70141
:100B00006B2F7A2F8F2F9E2F0E94CD0A9F938F934A
:100B10007F936F93EF92FF920F931F936091DF0289
:100B20007091E0028091E1029091E2020E94410AFC
:100B30009F938F937F936F936091DB027091DC02A0
:100B40008091DD029091DE020E94410A20E030E0B7
:100B500040E251E40E94A6099F938F937F936F9385
:100B6000DF93CF930E945F0E9FEF20E782E09150CA
:100B700020408040E1F700C000008DB79EB742964C
:100B80000FB6F8949EBF0FBE8DBFA4CFA3E1B0E017
:100B9000ECECF5E00C94F90C7C011B016A01FC0102
:100BA00017821682838181FF66C3BE016F5F7F4F0C
:100BB0004B01F7019381F10193FD859193FF8191A1
:100BC0001F01882309F453C3853239F493FD8591BD
:100BD00093FF81911F01853239F4B70190E00E94A3
:100BE0002D0E56016501E5CF10E0512C20E020329A
:100BF000A0F48B3269F030F4803259F0833269F41A
:100C000020612CC08D3239F0803339F4216026C048
:100C10002260246023C0286021C027FD27C030ED5A
:100C2000380F3A3078F426FF06C0FAE01F9F300DE7
:100C30001124132F13C06AE0569E300D1124532E39
:100C400020620CC08E3221F426FD11C3206406C040
:100C50008C3611F4206802C0883641F4F10193FD0E
:100C6000859193FF81911F018111C1CF9BEB980F5B
:100C7000933018F42061805E06C09BE9980F933092
:100C800008F0AAC12F7E26FF16E02F73722E85363C
:100C900021F4F22FF0647F2E08C0863621F4622FF3
:100CA0006068762E02C01111115077FE07C01C3308
:100CB00048F444244394410E27E00BC0183030F42C
:100CC000212F06C027E04CE3442E03C027E017E0A5
:100CD000412C560174E0A70EB11CF60160817181B0
:100CE00082819381042DA4010E943F0D6C01098132
:100CF00000FF02C003FF06C071FC07C072FC08C001
:100D0000612C08C03DE2632E05C02BE2622E02C0BA
:100D100090E2692E802F8C7099F1662011F084E0AA
:100D200001C083E0851510F0512C0BC0581A73FCDC
:100D300008C0B70180E290E00E942D0E5A94C9F7D6
:100D4000F3CF662029F0B701862D90E00E942D0E8A
:100D500003FD03C00EEE10E002C00AEE10E0F72D16
:100D6000F0717F2EF8018491882309F476C2711006
:100D70008052B70190E00E942D0E0F5F1F4FF2CFFF
:100D800077FE0FC04C0C04FF04C08A81813309F444
:100D90004A94141474F5F8E0F41578F588E0482EB8
:100DA0002CC076FC2AC0812F90E08C159D059CF00C
:100DB0006CEFC6166FEFD60674F0772D7068772E3D
:100DC0000AC0E2E0F0E0EC0FFD1FE10FF11D8081B1
:100DD000803319F411501111F4CF77FE0EC0442462
:100DE0004394410E812F90E0C816D9062CF41C19AB
:100DF00004C04424439401C010E077FE07C01C14D3
:100E00001D043CF496012F5F3F4F05C025E030E004
:100E100002C021E030E0662011F02F5F3F4F112328
:100E200031F0412F50E04F5F5F4F240F351F452DAC
:100E300050E02417350714F4521A01C0512C872DA5
:100E4000897049F4552039F0B70180E290E00E94A2
:100E50002D0E5A94F7CF662029F0B701862D90E029
:100E60000E942D0E73FC09C0552039F0B70180E3B4
:100E700090E00E942D0E5A94F7CF77FE5FC09C2D14
:100E80008D2DD7FE02C090E080E0692E782E40E0E4
:100E900050E0C601841991099D878C879601261917
:100EA0003709280D391D812F90E0EE27FF27E81B19
:100EB000F90BFF87EE87FFEF6F167F0669F4B70126
:100EC0008EE290E02B8B3A8B488B598B0E942D0E33
:100ED000598948893A892B89C614D70454F06C85FE
:100EE0007D85661577052CF4F901E40FF51F8181E6
:100EF00001C080E371E0671A71084F5F5F4FEE85B4
:100F0000FF856E167F066CF0B70190E02B8B3A8B55
:100F1000488B598B0E942D0E2B893A894889598913
:100F2000CACF6C147D0439F49A81963318F4953342
:100F300011F404FF81E3B70190E04BC08A81813353
:100F400009F00F7EB70190E00E942D0E111105C02F
:100F500074FE18C085E490E017C0B7018EE290E0FF
:100F60000E942D0E82E066246394680EF401E80F5F
:100F7000F11D8081B70190E00E942D0E115041F3C8
:100F8000862DF1CF85E690E0B7010E942D0ED7FCAB
:100F900005C0C114D10439F404FF05C0D194C19433
:100FA000D1088DE201C08BE2B70190E00E942D0EC6
:100FB00080E36AE0C616D1042CF08F5FFAE0CF1A06
:100FC000D108F7CFB70190E00E942D0EB701C601FE
:100FD000C0960E942D0E41C1833631F0833779F0DF
:100FE000833509F058C021C0560172E0A70EB11C2C
:100FF000F6018081898301E010E0640114C056018C
:10100000F2E0AF0EB11CF601C080D18026FF03C014
:10101000612F70E002C06FEF7FEFC6012B8B0E9443
:10102000220E8C012B892F7715C05601F2E0AF0EEE
:10103000B11CF601C080D18026FF03C0612F70E093
:1010400002C06FEF7FEFC6012B8B0E94170E8C0141
:101050002B892068722E23FD1AC0852D90E0081779
:101060001907A8F4B70180E290E00E942D0E5A946F
:10107000F4CFF60177FC859177FE81916F01B7017E
:1010800090E00E942D0E51105A9401501109011543
:10109000110579F7E2C0843611F0893651F5560111
:1010A00027FF09C0F4E0AF0EB11CF6016081718129
:1010B000828193810AC0F2E0AF0EB11CF60160811B
:1010C0007181882777FD8095982F022F0F7697FFE3
:1010D00008C090958095709561957F4F8F4F9F4F79
:1010E00000682AE030E0A4010E94A00EC82EC818B3
:1010F0003EC0022F853721F40F7E2AE030E01DC06C
:10110000097F8F3691F018F4883559F0B0C08037D8
:1011100019F0883711F0ABC0006104FF09C004600A
:1011200007C024FF08C0066006C028E030E005C004
:1011300020E130E002C020E132E0560107FF09C0A3
:10114000F4E0AF0EB11CF601608171818281938160
:1011500008C0F2E0AF0EB11CF6016081718180E041
:1011600090E0A4010E94A00EC82EC8180F7706FFB9
:101170000BC0202F2E7FC11650F404FF0AC002FDC1
:1011800008C0202F2E7E05C0DC2C202F03C0DC2CB5
:1011900001C0D12E24FF0DC0FE01EC0DF11D808198
:1011A000803311F4297E09C022FF06C0D394D39462
:1011B00004C0822F867809F0D39423FD13C020FF4A
:1011C00006C01C2DD51418F4150D1D19D52CD514D9
:1011D00068F4B70180E290E02B8B0E942D0ED3942F
:1011E0002B89F5CFD51410F45D1801C0512C24FFC4
:1011F00012C0B70180E390E02B8B0E942D0E2B894B
:1012000022FF17C021FF03C088E590E002C088E7F5
:1012100090E0B7010CC0822F867859F021FD02C002
:1012200080E201C08BE227FD8DE2B70190E00E94D1
:101230002D0EC11638F4B70180E390E00E942D0E08
:101240001150F7CFCA94F401EC0DF11D8081B70164
:1012500090E00E942D0EC110F5CF552009F4C2CCAC
:10126000B70180E290E00E942D0E5A94F6CFF7016C
:101270008681978102C08FEF9FEF6396E2E10C9425
:10128000150D5058BB27AA270ED04DC13ED130F0C6
:1012900043D120F031F49F3F11F41EF433C10EF41A
:1012A000E095E7FB29C1E92F4FD180F3BA17620718
:1012B00073078407950718F071F49EF567C10EF463
:1012C000E0950B2EBA2FA02D0B01B90190010C0156
:1012D000CA01A0011124FF27591B99F0593F50F46E
:1012E000503E68F11A16F040A22F232F342F4427C6
:1012F000585FF3CF469537952795A795F0405395BE
:10130000C9F77EF41F16BA0B620B730B840BBAF08D
:101310009150A1F0FF0FBB1F661F771F881FC2F7F8
:101320000EC0BA0F621F731F841F48F4879577950C
:101330006795B795F7959E3F08F0B3CF9395880FC3
:1013400008F09927EE0F9795879508950CD0EBC07C
:10135000E3D040F0DAD030F021F45F3F19F0CCC098
:10136000511115C1CFC0F0D098F39923C9F355237B
:10137000B1F3951B550BBB27AA2762177307840788
:1013800038F09F5F5F4F220F331F441FAA1FA9F33E
:1013900033D00E2E3AF0E0E830D091505040E69530
:1013A000001CCAF729D0FE2F27D0660F771F881F91
:1013B000BB1F261737074807AB07B0E809F0BB0B80
:1013C000802DBF01FF2793585F4F2AF09E3F5105A4
:1013D00068F092C0DCC05F3FECF3983EDCF386958A
:1013E00077956795B795F7959F5FC9F7880F911D1A
:1013F0009695879597F90895E1E0660F771F881F06
:10140000BB1F621773078407BA0720F0621B730BB8
:10141000840BBA0BEE1F88F7E095089504D068940A
:10142000B111B5C0089598D088F09F5790F0B92FAA
:101430009927B751A0F0D1F0660F771F881F991F29
:101440001AF0BA95C9F712C0B13081F09FD0B1E05F
:1014500008959CC0672F782F8827B85F39F0B93F6F
:10146000CCF3869577956795B395D9F73EF490952B
:101470008095709561957F4F8F4F9F4F0895E894A9
:1014800009C097FB3EF490958095709561957F4FCC
:101490008F4F9F4F9923A9F0F92F96E9BB2793957A
:1014A000F695879577956795B795F111F8CFFAF48A
:1014B000BB0F11F460FF1BC06F5F7F4F8F4F9F4FBB
:1014C00016C0882311F096E911C0772321F09EE819
:1014D000872F762F05C0662371F096E8862F70E07F
:1014E00060E02AF09A95660F771F881FDAF7880F59
:1014F0009695879597F9089597F99F6780E870E02A
:1015000060E008959FEF80EC089500240A94161679
:10151000170618060906089500240A9412161306E1
:10152000140605060895092E0394000C11F488236F
:1015300052F0BB0F40F4BF2B11F460FF04C06F5F8B
:101540007F4F8F4F9F4F089557FD9058440F551F61
:1015500059F05F3F71F04795880F97FB991F61F035
:101560009F3F79F087950895121613061406551FAC
:10157000F2CF4695F1DF08C0161617061806991F18
:10158000F1CF86957105610508940895E894BB270D
:1015900066277727CB0197F908950BD0C4CFB5DF25
:1015A00028F0BADF18F0952309F0A6CFABCF1124AD
:1015B000EECFCADFA0F3959FD1F3950F50E0551FF2
:1015C000629FF001729FBB27F00DB11D639FAA2798
:1015D000F00DB11DAA1F649F6627B00DA11D661FE7
:1015E000829F2227B00DA11D621F739FB00DA11D08
:1015F000621F839FA00D611D221F749F3327A00DC2
:10160000611D231F849F600D211D822F762F6A2F5D
:1016100011249F5750408AF0E1F088234AF0EE0FE2
:10162000FF1FBB1F661F771F881F91505040A9F7EF
:101630009E3F510570F060CFAACF5F3FECF3983E1C
:10164000DCF3869577956795B795F795E7959F5F56
:10165000C1F7FE2B880F911D9695879597F90895F0
:10166000FA01EE0FFF1F30962105310599F1611542
:10167000710561F48038BFE39B0749F168949038A5
:10168000810561F08038BFEF9B0741F0992342F557
:10169000FF3FE1053105210511F1E8940894E79534
:1016A000D901AA2329F4AB2FBE2FF85FD0F310C0C5
:1016B000FF5F70F4A695E0F7F73950F019F0FF3AA4
:1016C00038F49F779F930CD00F9007FC90580895A3
:1016D0003EF018CF60E070E080E89FE308954FE7A8
:1016E0009F775F934F933F932F939ED02F913F917E
:1016F0004F915F9152DF05C019F40EF0FDCE46CF39
:1017000001CF2ADFC8F39638C0F707F80F92E894A4
:101710002BE33AEA48EB5FE74EDF0F920F920F920E
:101720004DB75EB70F92C0D0E8E6F0E016D04F910B
:101730005F91EF91FF91E595EE1FFF1F49F0FE5776
:10174000E0684427EE0F441FFA95E1F74195550BE9
:1017500032D00F9007FE26C00895DF93CF931F93DA
:101760000F93FF92EF92DF927B018C01689405C08A
:10177000DA2EEF011EDFFE01E894A5912591359147
:1017800045915591AEF3EF018EDDFE019701A80161
:10179000DA9479F7DF90EF90FF900F911F91CF913E
:1017A000DF9108959B01AC0160E070E080E89FE369
:1017B000CDCDA2CEACC0D0DEE8F39923D9F3940FFF
:1017C000511DBBF39150504094F059F0882332F0F2
:1017D000660F771F881F91505040C1F79E3F5105FB
:1017E00044F7880F911D9695879597F908955F3F67
:1017F000ACF0983E9CF0BB27869577956795B7959A
:1018000008F4B1609395C1F7BB0F58F711F460FF6E
:10181000E8CF6F5F7F4F8F4F9F4FE3CFB8CE0EF073
:1018200076C070CE689468CE97DEC8F39923D1F362
:10183000C6F3DF93CF931F930F93FF92C92FDD273A
:1018400088232AF02197660F771F881FDAF720E098
:1018500030E040E85FEB9FE3883920F0803E30F0D5
:1018600021968F770FDDE0E9F0E003C00BDDEDEBB3
:10187000F0E073DF8B01BE01EC01FB2E6F577109A5
:101880007595771F880B990BFCDD28E132E741E362
:101890005FE38FDEAF2D9801AE01FF900F911F9196
:1018A000CF91DF9100DD3FCEFA01DC01AA0FBB1F13
:1018B0009B01AC01BF5728F42227332744275078D7
:1018C0001FC0B75188F4AB2F002446953795279554
:1018D000011CA395D2F3002069F0220F331F441F8F
:1018E000B395DAF30DD0CDCC61307105A0E88A074D
:1018F000B94630F49B01AC0166277727882790789A
:10190000309621F0208331834283538308959F3F93
:1019100031F0915020F4879577956795B795880FAA
:10192000911D9695879597F90895DB018F939F9365
:101930000E94E60CBF91AF91A29F800D911DA39FC5
:10194000900DB29F900D11240895A1E21A2EAA1BAA
:10195000BB1BFD010DC0AA1FBB1FEE1FFF1FA2175F
:10196000B307E407F50720F0A21BB30BE40BF50B5C
:10197000661F771F881F991F1A9469F760957095E5
:10198000809590959B01AC01BD01CF010895052E76
:1019900097FB1EF400940E94DE0C57FD07D00E94B6
:1019A000A50C07FC03D04EF40C94DE0C509540952A
:1019B000309521953F4F4F4F5F4F089590958095FB
:1019C000709561957F4F8F4F9F4F08950E94300D06
:1019D000A59F900DB49F900DA49F800D911D112483
:1019E0000895B7FF0C94E60C0E94E60C821B930B43
:1019F00008952F923F924F925F926F927F928F92B3
:101A00009F92AF92BF92CF92DF92EF92FF920F938D
:101A10001F93CF93DF93CDB7DEB7CA1BDB0B0FB697
:101A2000F894DEBF0FBECDBF09942A883988488854
:101A30005F846E847D848C849B84AA84B984C884EA
:101A4000DF80EE80FD800C811B81AA81B981CE0FE1
:101A5000D11D0FB6F894DEBF0FBECDBFED010895C6
:101A6000A29FB001B39FC001A39F700D811D1124DF
:101A7000911DB29F700D811D1124911D0895283074
:101A800008F027E03327DA01990F311D87FD9160B7
:101A900000966105710539F432602E5F3D9330E3A5
:101AA0002A95E1F708959F3F30F080387105610570
:101AB00009F03C5F3C5F3D93913008F08068911DD8
:101AC000DF93CF931F930F93FF92EF92192F987F7D
:101AD0009695E92F96959695E90FFF27E45BFE4FC3
:101AE00099273327EE24FF24A701E70105900894E6
:101AF000079428F4360FE71EF81E491F511D660F84
:101B0000771F881F991F0694A1F70590079428F462
:101B1000E70EF81E491F561FC11D770F881F991F1A
:101B2000661F0694A1F70590079428F4F80E491F44
:101B3000561FC71FD11D880F991F661F771F069458
:101B4000A1F70590079420F4490F561FC71FD81F0F
:101B5000990F661F771F881F0694A9F78491109527
:101B6000177041F0D695C79557954795F794E79428
:101B70001A95C1F7E2EFF0E0689415901591359150
:101B80006591959105907FE27395E118F10A430BF9
:101B9000560BC90BD009C0F7E10CF11E431F561FAD
:101BA000C91FD01D7EF4703311F48A95E6CFE894F6
:101BB000015030F0080F0AF40027021708F4202F14
:101BC0002395022F7A3328F079E37D932A95E9F75C
:101BD00010C07D932A9589F6069497956795379559
:101BE00017951794E118F10A430B560BC90BD0094E
:101BF00098F023957E9173957A3308F070E37C9387
:101C00002013B8F77E9170617D9330F0839571E376
:101C10007D9370E32A95E1F71124EF90FF900F91E7
:101C20001F91CF91DF91992787FD90950895FC0131
:101C30000590615070400110D8F7809590958E0FF7
:101C40009F1F0895FC016150704001900110D8F76A
:101C5000809590958E0F9F1F08950F931F93CF939C
:101C6000DF93182F092FEB018B8181FD03C08FEFCC
:101C70009FEF20C082FF10C04E815F812C813D818B
:101C8000421753077CF4E881F9819F012F5F3F4F92
:101C900039832883108306C0E885F985812F09954B
:101CA000892B29F72E813F812F5F3F4F3F832E8362
:101CB000812F902FDF91CF911F910F910895A0E078
:101CC000B0E0E5E6FEE00C94090DFE013596619169
:101CD0007191AF0180910303909104030E94C605A6
:101CE000E2E00C94250D0F931F93CF93DF93E091C7
:101CF0000303F0910403238121FF1BC0EC0100E0EA
:101D000010E089916091030370910403DB01189640
:101D1000ED91FC911997882331F00995892B89F36E
:101D20000FEF1FEFEECF8AE00995892B11F4C80160
:101D300002C08FEF9FEFDF91CF911F910F91089518
:101D4000FA01AA27283051F1203181F1E8946F93EC
:101D50006E7F6E5F7F4F8F4F9F4FAF4FB1E03ED092
:101D6000B4E03CD0670F781F891F9A1FA11D680F30
:101D7000791F8A1F911DA11D6A0F711D811D911D63
:101D8000A11D20D009F468943F912AE0269F1124D8
:101D90003019305D3193DEF6CF010895462F47703C
:101DA000405D4193B3E00FD0C9F7F6CF462F4F7097
:101DB000405D4A3318F0495D31FD4052419302D0F5
:101DC000A9F7EACFB4E0A69597958795779567959B
:101DD000BA95C9F700976105710508959B01AC019B
:101DE0000A2E06945795479537952795BA95C9F7C2
:101DF000620F731F841F951FA01D0895F894FFCFD5
:101E00000000000200000000150100000000CD8B62
:101E10000100ABAAADACAFAEB1B0B3B2B5B4B7B61A
:101E2000B9B8BBBABDBCBFBE5B496E666F5D095336
:101E30007461727420636F6E646974696F6E20736D
:101E4000656E6420262077616974696E6720666F0D
:101E5000722061636B2E2E2E20005B5375636365C9
:101E600073735D0941636B20686173206265656E01
:101E70002072656365697665642E005B496E666FE6
:101E80005D095472616E736D697373696F6E20685A
:101E90006173206265656E20656E6465642E005B0B
:101EA000496E666F5D094164647265737320252312
:101EB00030327820686173206265656E2073656ECC
:101EC000742E2057616974696E6720666F72206195
:101ED000636B2E2E2E200A005B537563636573734C
:101EE0005D0941636B20686173206265656E2072D5
:101EF000656365697665642E20005B496E666F5D7B
:101F00000953656E64696E672064617461202825D9
:101F100023303278292E0A005B537563636573732F
:101F20005D09446174612073656E742E2057616988
:101F300074696E6720666F722061636B2E2E2E208F
:101F4000005B496E666F5D0952656164696E67206A
:101F5000646174612E2E2E005B5375636365737329
:101F60005D09446174612028252330327829206876
:101F70006173206265656E207265616420737563AC
:101F80006365737366756C792E0A0054656D7065B0
:101F90007261747572653A20252E326620432C20BA
:101FA00050726573737572653A20252E3266205023
:101FB000612C20416C7469747564653A20252E3259
:101FC00066206D202825322E66206674292C0A0092
:00000001FF
